:100000000C9472000C94490C0C94720C0C949F0C80
:100010000C948F000C948F000C941A0E0C94C80D45
:100020000C94F10D0C949F0D0C94010D0C942A0D61
:100030000C94D80C0C948F000C948F000C948F00AF
:100040000C948F000C94200C0C948F000C948F0057
:100050000C948F004D0B4F0B510B530B550B570B43
:10006000590B5B0B5D0B5F0B610B630B650B670B38
:10007000690B6B0B6D0B6F0B710B730B750B770BA8
:10008000790B7B0B7D0B7F0B810B830B850B870B18
:10009000890B8B0B970B990B9B0B9D0B9F0BA10B4C
:1000A000A30BA50BA70BA90BAB0BAD0BAF0BB10BA8
:1000B000B30BB50BB70BB90BBB0BBD0BBF0BC10B18
:1000C000C30BC50BC70BC90BCB0BCD0BCF0BD10B88
:1000D000D30BD50B5D0D650D6A0D6C0D6E0D790D95
:1000E0007E0D800D11241FBECFE5D8E0DEBFCDBF51
:1000F00012E0A0E6B0E0E0E2FEE102C005900D9261
:10010000A43AB107D9F722E0A4EAB2E001C01D92F7
:10011000A73CB207E1F70E9435050C940E0F0C9432
:100120000000DF92EF92FF920F931F93CF93DF9324
:1001300061E080E00E943D0B61E081E00E943D0BA8
:1001400061E082E00E943D0B61E083E00E943D0B94
:100150009BE6E92E90E0F92EC0E0DEE460E08C2F13
:100160000E943D0B00E010E084E0D82ED00E8D2DD3
:100170000E94E70B811109C0F701E00FF11FD08148
:100180008D2D0E94E70B8823D9F30F5F1F4F04309A
:10019000110551F761E08C2F0E943D0BCF5F84E089
:1001A000E80EF11CC430D1F68D2FDF91CF911F9155
:1001B0000F91FF90EF90DF900895CF93C82F60E0EC
:1001C00088E00E943D0B6C2F82E00E94D70B61E01B
:1001D00089E00E943D0B8FEC97E00197F1F700C09A
:1001E000000060E089E00E943D0B8FEC97E00197F2
:1001F000F1F700C00000CF910895CF93C82F61E0C0
:1002000088E00E943D0B6C2F82E00E94D70B61E0DA
:1002100089E00E943D0B8FEC97E00197F1F700C059
:10022000000060E089E00E943D0B8FEC97E00197B1
:10023000F1F700C00000CF9108952FE788E391E027
:10024000215080409040E1F700C0000088E30E9408
:10025000DD008EE00E94DD0081E00E94DD008FEC79
:1002600097E00197F1F700C0000086E00C94DD00F4
:100270000C94FD000F931F93CF938C01C0E0F80105
:10028000EC0FF11D8081882321F00E94FD00CF5FDB
:10029000F6CFCF911F910F910895AC0190E0FA0134
:1002A000E90FF11D8081882311F09F5FF8CF2FEFB8
:1002B000290FFA019695822F891B281749F0908102
:1002C000DA01A20FB11D3C9131939C932150F5CFDF
:1002D00008954F925F926F927F928F929F92BF92FA
:1002E000CF92DF92EF92FF920F931F93CF93DF9302
:1002F000CDB7DEB764970FB6F894DEBF0FBECDBFA3
:100300006B017C018E010F5F1F4F84E1F801119298
:100310008A95E9F7C114D104E104F10421F480E3E2
:100320000E94FD0031C0F7FE0BC0F094E094D09421
:10033000C094C11CD11CE11CF11C8DE20E94FD0087
:10034000B12C8AE0482E512C612C712C48018B0C69
:10035000911CC701B601A30192010E94E90E605DE4
:10036000F401608369017A01B394C114D104E104FA
:10037000F10461F7F801EB0DF11D1082C8010E9434
:100380004D01C8010E943A0164960FB6F894DEBF91
:100390000FBECDBFDF91CF911F910F91FF90EF90D6
:1003A000DF90CF90BF909F908F907F906F905F90E5
:1003B0004F900895811102C080E803C0813021F47C
:1003C00080EC860F0C94DD00089581E00C94DD0034
:1003D0008091A4029091A502A091A602B091A702DB
:1003E0000196A11DB11D8093A4029093A502A09334
:1003F000A602B093A702089562E082E00E94530D26
:1004000088EE91E00E949A0D0E94920D8FE493EC89
:100410009BBD8ABD0895CF93DF93C82FD62F0E942E
:10042000E5016FE080E00E94DA018BE790E00E9436
:100430003A010E94E5016EE180E0D11134C00E94D2
:10044000DA018AEF91E00E943A0160E080E00E94C8
:10045000DA018091C602C530D1F0C63081F5813015
:1004600039F48CE291E00E943A0187E890E006C0FE
:100470008CE291E00E943A0186EB90E00E943A0102
:1004800060E081E00E94DA0180E990E03BC08130C9
:1004900029F480EC90E00E943A011DC080EC90E0CD
:1004A0000E943A0125C00E94DA0186E492E00E948F
:1004B0003A0160E080E00E94DA018091C60281305A
:1004C00069F488ED90E00E943A016C2F70E080E0C2
:1004D00090E00E94690187E890E00CC088ED90E010
:1004E0000E943A016C2F70E080E090E00E94690168
:1004F00086EB90E00E943A0160E081E00E94DA0120
:1005000083EC90E0DF91CF910C943A01DF92EF926F
:10051000FF920F931F93CF93DF93D82F162F0AE0EC
:1005200091E3F92E8091AA02811170C18091690036
:10053000813009F06BC14091A4025091A5026091F5
:10054000A6027091A7028091640090916500A0912D
:100550006600B0916700481759076A077B0738F1B2
:100560000E94960D109269001092A4021092A502AA
:100570001092A6021092A70260E088E10E943D0B53
:1005800060E089E10E943D0B0E94E5016DE080E0A2
:100590000E94DA018DED90E00E943A012FEF89E68A
:1005A00098E1215080409040E1F700C000001130F8
:1005B00009F0C7C00E949100809368008091680094
:1005C0008E3409F4AFCF80916800813369F0809157
:1005D0006800823349F080916800803329F080916F
:1005E0006800833309F0AAC080916800813309F064
:1005F0005CC08DE60E94D30C8FEC97E00197F1F779
:1006000000C000000E94E5018FEE90E00E943A01D8
:100610006FE081E00E94DA018FE0E82EC0E0809177
:1006200068008D33B1F10E94910080936800809141
:1006300068008E34A1F3809168008A3390F4809131
:100640006800803370F08091680080539AE0C99F01
:10065000800D1124C82F809168000E943801E39416
:10066000DECF809168008336D1F68C2F602F0E94F8
:10067000A70EC82FDD24DA94DE0C6D2D81E00E94D8
:10068000DA0180E20E9438016D2D81E00E94DA01DA
:10069000C6CF8C2F0E94D30C8FEC97E00197F1F717
:1006A00000C00000F092680010C0809168008233A2
:1006B00091F48EE60E94D30C8FEC97E00197F1F74E
:1006C00000C0000081E08093A8028091AA028F5FA1
:1006D0008093AA0227CF809168008033F1F484E6EA
:1006E0000E94D30C8FEC97E00197F1F700C0000057
:1006F0000E94E50160E080E00E94DA0181E091E083
:100700000E943A0160E081E00E94DA018BE191E011
:100710000E943A011092A902D8CF809168008333D9
:1007200009F000CF86E60E94D30C8FEC97E001978A
:10073000F1F700C000001092A802C7CF8091C50257
:100740005FC01111EFCE0E949100809368008091EC
:1007500068008E3409F4E6CE80916800813349F058
:1007600080916800823329F080916800803309F01D
:1007700043C080916800813311F48EE605C08091FA
:100780006800823351F486E60E94D30C8FEC97E028
:100790000197F1F700C0000098CF80916800803386
:1007A00009F0C0CE8091AA028F5F8093AA0284E6EE
:1007B0000E94D30C0E94E50160E080E0D1110DC0E1
:1007C0000E94DA0181E091E00E943A0160E081E05C
:1007D0000E94DA018BE191E00CC00E94DA018AE309
:1007E00091E00E943A0160E081E00E94DA018CE42D
:1007F00091E00E943A0196CE8091C502D11102C0CB
:1008000060E001C061E00E940B028CCEDF91CF91CD
:100810001F910F91FF90EF90DF900895CF93DF939A
:10082000C82FD1E080916900813009F01BC180910F
:100830006800803309F416C14091A4025091A502CA
:100840006091A6027091A70280916400909165006A
:10085000A0916600B0916700481759076A077B07A7
:1008600038F10E94960D109269001092A402109225
:10087000A5021092A6021092A70260E088E10E94F1
:100880003D0B60E089E10E943D0B0E94E5016DE0B7
:1008900080E00E94DA018DED90E00E943A012FEF96
:1008A00089E698E1215080409040E1F700C00000C7
:1008B0000E94E50183E60E94D30C8093C6028FEC70
:1008C00097E00197F1F700C000008091C5028630E3
:1008D00049F48091A802882319F0D093C60202C07F
:1008E0001092C6028091C6028130B9F51092AA0218
:1008F0006EE180E0C11105C00E94DA018AEF91E04B
:1009000004C00E94DA0186E492E00E943A0160E0AD
:1009100080E00E94DA018091C502853029F480ECE4
:1009200090E00E943A0116C08091C502863039F4E9
:100930008CE291E00E943A0187E890E03AC088EDAD
:1009400090E00E943A016091C50270E080E090E082
:100950000E94690187E890E046C08091C60281113B
:100960004CC01092AA026EE1C11105C00E94DA01CA
:100970008AEF91E005C080E00E94DA0186E492E00F
:100980000E943A0160E080E00E94DA018091C50295
:10099000853029F480EC90E00E943A0122C08091D9
:1009A000C502863099F48CE291E00E943A0186EB10
:1009B00090E00E943A0160E081E00E94DA0180E963
:1009C00090E00E943A01D093A90217C088ED90E010
:1009D0000E943A016091C50270E080E090E00E94C0
:1009E000690186EB90E00E943A0160E081E00E949C
:1009F000DA0183EC90E00E943A016091A9028C2F09
:100A00000E94860280916800813349F080916800DD
:100A1000823329F080916800833309F003CF8FEC93
:100A200097E00197F1F700C0000084E60E94D30C24
:100A30008FEC97E00197F1F700C0000083E70E9478
:100A4000D30C8FEC97E00197F1F700C00000809184
:100A5000C5020E94D30C8FEC97E00197F1F700C01C
:100A60000000E0CEDF91CF91089578940E942A0B88
:100A70000E941D0180E00E94CC0C86E090E00E9464
:100A8000190C8F3F09F087C060E080E00E94DA0116
:100A90008DE591E00E943A0160E081E00E94DA0178
:100AA00089E691E00E943A012FEF89E698E1215012
:100AB00080409040E1F700C000000E94E50180EE18
:100AC00091E00E943A0160E081E00E94DA0110E0CA
:100AD000C0E0D0E07AE0E72EF12C0AE00E9491001D
:100AE00080936800809168008E34F1F180916800F5
:100AF0008A3348F580916800803328F10C9FC0014B
:100B00000D9F900D1124C0916800D0E0E097C80FB0
:100B1000D91F612F81E00E94DA01809168000E9454
:100B200038012FEF82E597E0215080409040E1F7B7
:100B300000C00000612F81E00E94DA018AE20E9479
:100B400038011F5F11C080916800833669F4CE01BF
:100B5000B7010E94B30EEB011150612F81E00E949A
:100B6000DA0180E20E943801143008F4B7CFD09344
:100B7000AE02C093AD026091AD027091AE0281E011
:100B800090E00E94430E8EE48093680060E086E06F
:100B900090E00E940B0C8CE090E00E94190C8F3FBB
:100BA00009F088C060E080E00E94DA018DE591E004
:100BB0000E943A0160E081E00E94DA018CE791E056
:100BC0000E943A012FEF89E698E121508040904041
:100BD000E1F700C000000E94E5018CE292E00E9473
:100BE0003A0160E081E00E94DA0110E0C0E0D0E06C
:100BF0006AE0E62EF12C0AE00E94910080936800E2
:100C0000809168008E34F1F1809168008A3348F554
:100C100080916800803328F10C9FC0010D9F900DDA
:100C20001124C0916800D0E0E097C80FD91F612F50
:100C300081E00E94DA01809168000E9438012FEF64
:100C400082E597E0215080409040E1F700C000002D
:100C5000612F81E00E94DA018AE20E9438011F5F61
:100C600011C080916800833669F4CE01B7010E94FB
:100C7000B30EEB011150612F81E00E94DA0180E296
:100C80000E943801143008F4B7CFD093AC02C0935F
:100C9000AB026091AB027091AC0287E090E00E94E1
:100CA000430E8EE48093680060E08CE090E00E9448
:100CB0000B0C10C081E090E00E946E0E9093AE028B
:100CC0008093AD0287E090E00E946E0E9093AC029C
:100CD0008093AB02C2E001E04AE0D42E1EE45AE069
:100CE000E52EF12C009369000E94E5016AE080E0A6
:100CF0000E94DA018FE891E00E943A0160E081E011
:100D00000E94DA0180EA91E00E943A010E9491007B
:100D100080936800809168008E34C1F380916800F0
:100D2000813321F080916800823391F480916800D2
:100D300090E0C0978130910571F0029709F063C18E
:100D40001093680093E0A92EC12CC0E0D0E0D5C07C
:100D500081EC91E0D9CF1093680033E0B32EC0E06E
:100D6000D0E00E94E50165E080E00E94DA0186EDB6
:100D700091E00E943A01C12C0E949100809368008A
:100D8000809168008E3409F44AC0809168008A33EB
:100D900060F580916800803340F1DC9EC001DD9EEB
:100DA000900D1124C0916800D0E0E097C80FD91FC2
:100DB0002FE0A22EAC0C6A2D81E00E94DA01809116
:100DC00068000E9438012FEF82E597E021508040B3
:100DD0009040E1F700C000006A2D81E00E94DA0136
:100DE0008AE20E943801C3941AC080916800833659
:100DF000B1F4CE01B7010E94B30EEB01AA24AA946C
:100E0000AC0C2EE0C20E6C2D81E00E94DA0180E273
:100E10000E9438016C2D81E00E94DA01CA2C83E027
:100E20008C1508F0A9CF8091AD029091AE028C177D
:100E30009D07E1F40E94E50168E080E00E94DA018C
:100E40008FEE91E00E943A0161E088E10E943D0B43
:100E50009FEF29E688E1915020408040E1F700C0F3
:100E60000000109368000E94E501D1C0BA940E946E
:100E7000E50185E092E00E943A0160E081E00E9495
:100E8000DA0184E192E00E943A016B2D70E080E08B
:100E900090E00E9469019FEF23ED80E39150204094
:100EA0008040E1F700C00000BB2009F486C259CFA2
:100EB000AA940E94E50160E080E00E94DA0185E0EA
:100EC00092E00E943A0160E081E00E94DA0184E150
:100ED00092E00E943A016A2D70E080E090E00E946A
:100EE00069018FEF93ED20E3815090402040E1F7BE
:100EF00000C00000AA2009F460C20E94E50165E07C
:100F000080E00E94DA0182E292E00E943A0123E04E
:100F10002C1508F454C00E949100809368008091C1
:100F200068008E34A1F3809168008A3360F5809167
:100F30006800803340F1DC9EC001DD9E900D1124DD
:100F4000C0916800D0E0E097C80FD91F8FE0B82E9D
:100F5000BC0C6B2D81E00E94DA01809168000E9438
:100F600038019FEF22E587E0915020408040E1F773
:100F700000C000006B2D81E00E94DA018AE20E942D
:100F80003801C394C4CF80916800833609F0BFCF85
:100F9000CE01B7010E94B30EEB01BB24BA94BC0C86
:100FA0009EE0C90E6C2D81E00E94DA0180E20E9471
:100FB00038016C2D81E00E94DA01CB2CA8CF809102
:100FC000AB029091AC02C817D90709F071CF0E940B
:100FD000E50168E080E00E94DA018BE392E00E9484
:100FE0003A0161E089E10E943D0B8FEF99E628E12B
:100FF000815090402040E1F700C00000109368004D
:101000000E94E501EFC00E94E501C111E8C06EE158
:1010100080E00E94DA018AEF91E00E943A01109389
:10102000680060E080E00E94DA0181E091E00E94C7
:101030003A0160E081E00E94DA018BE191E00E94D8
:101040003A0180916900813009F0C7C083E70E94AE
:10105000D30C8FE097E20197F1F700C000000E94E7
:10106000FC01109368004091A4025091A502609188
:10107000A6027091A7028091640090916500A091F2
:101080006600B0916700481759076A077B0708F4A4
:1010900064C00E94960D109269001092A4021092F2
:1010A000A5021092A6021092A70260E088E10E94B9
:1010B0003D0B0E94E5016DE080E00E94DA018DEDBC
:1010C00090E00E943A019FEF29E688E1915020408C
:1010D0008040E1F700C0000040C04091A402509160
:1010E000A5026091A6027091A70280916400909180
:1010F0006500A0916600B0916700481759076A071C
:101100007B0718F10E94960D109269001092A402BC
:101110001092A5021092A6021092A70260E088E148
:101120000E943D0B0E94E5016DE080E00E94DA0123
:101130008DED90E00E943A019FEF29E688E1915001
:1011400020408040E1F700C000000E9491008093A1
:101150006800809168008E3431F48091690081309C
:1011600009F4BBCF36C080916800873370F480915A
:101170006800813350F0C0916800D0E0E0978C2F78
:101180000E94D30CC093C50224C00E94E5016FE009
:1011900080E00E94DA018BE790E00E943A012FEF95
:1011A00089E698E1215080409040E1F700C00000BE
:1011B00060E080E00E94DA0181E091E00E943A0163
:1011C00060E081E00E94DA018BE191E00E943A0147
:1011D000C4CF80E00E940E0434CFC0E083CDC13084
:1011E00009F0EDC06EE180E00E94DA0186E492E051
:1011F0000E943A011093680060E080E00E94DA01EA
:101200008AE391E00E943A0160E081E00E94DA0105
:101210008CE491E00E943A0180916900813009F0EC
:10122000CAC083E70E94D30C87EE93E00197F1F7E1
:1012300000C000000E94FC01109368004091A402CD
:101240005091A5026091A6027091A702809164005E
:1012500090916500A0916600B0916700481759070A
:101260006A077B0708F467C00E94960D1092690018
:101270001092A4021092A5021092A6021092A70248
:1012800060E089E10E943D0B0E94E5016DE080E095
:101290000E94DA018DED90E00E943A019FEF29E66D
:1012A00088E1915020408040E1F700C0000043C039
:1012B0004091A4025091A5026091A6027091A702EC
:1012C0008091640090916500A0916600B0916700E4
:1012D000481759076A077B0730F10E94960D109254
:1012E00069001092A4021092A5021092A602109218
:1012F000A70260E089E10E943D0B0E94E5016DE0DC
:1013000080E00E94DA018DED90E00E943A0184E6CF
:101310000E94D30C9FEF29E688E191502040804045
:10132000E1F700C000000E94910080936800809166
:1013300068008E3431F480916900813009F4B8CFAF
:1013400036C080916800853370F4809168008133E5
:1013500050F0C0916800D0E0E0978C2F0E94D30C31
:10136000C093C50224C00E94E5016FE080E00E94A6
:10137000DA018BE790E00E943A012FEF89E698E1CD
:10138000215080409040E1F700C0000060E080E024
:101390000E94DA018AE391E00E943A0160E081E074
:1013A0000E94DA018CE491E00E943A01C4CF81E00E
:1013B0000E940E0431CFC1E095CC0E94E50161E0AE
:1013C0008AE10E943D0B00936A000E94E50181E5DD
:1013D00092E00E943A0160E081E00E94DA018DE62D
:1013E00092E00E943A010E94FC01809169008823EA
:1013F00031F14091A4025091A5026091A602709132
:10140000A7028091600090916100A0916200B0916C
:101410006300481759076A077B0738F30E94960D47
:1014200060E08AE10E943D0B109269001092A402D4
:101430001092A5021092A6021092A702D6CFC2E087
:1014400051CC613009F457C020F0623009F4ABC0D0
:101450000895883080F44AB321E030E0B90102C039
:10146000660F771F8A95E2F7CB01942F982B9ABBD2
:101470009BB3809551C098EF980F983088F447B38C
:10148000877021E030E0B90102C0660F771F8A95AE
:10149000E2F7CB01942F982B97BB98B3809553C05C
:1014A00090EF980F983088F444B3877021E030E0D3
:1014B000B90102C0660F771F8A95E2F7CB01942F1E
:1014C000982B94BB95B3809555C098EE980F9830A3
:1014D00008F0BFC041B3877021E030E0B90102C01D
:1014E000660F771F8A95E2F7CB01942F982B91BB5B
:1014F00092B3809556C0883090F44AB321E030E032
:10150000B90102C0660F771F8A95E2F7CB0180957B
:10151000942F98239ABB9BB389238BBB089598EF94
:10152000980F983098F447B3877021E030E0B90104
:1015300002C0660F771F8A95E2F7CB018095942F42
:10154000982397BB98B3892388BB089590EF980F91
:10155000983090F444B3877021E030E0B90102C0C4
:10156000660F771F8A95E2F7CB018095942F982319
:1015700094BB95B3892355C098EE980F983008F026
:1015800068C041B3877021E030E0B90102C0660F46
:10159000771F8A95E2F7CB018095942F982391BB12
:1015A00092B3892355C0883088F44AB321E030E0F3
:1015B000B90102C0660F771F8A95E2F7CB01962F1B
:1015C000909594239ABB9BB3892BA7CF98EF980F44
:1015D000983090F447B3877021E030E0B90102C041
:1015E000660F771F8A95E2F7CB01962F909594238B
:1015F00097BB98B3892BA8CF90EF980F983098F4A9
:1016000044B3877021E030E0B90102C0660F771F54
:101610008A95E2F7CB01962F9095942394BB95B3CE
:10162000892B85BB089598EE980F983090F441B3BC
:10163000877021E030E0B90102C0660F771F8A95FC
:10164000E2F7CB01962F9095942391BB92B3892B0F
:1016500082BB08950F931F93CF9303E812E0C0E07D
:10166000F80161918F018C2F0E94210ACF5FC03257
:10167000B9F7CF911F910F910895662309F44DC0DA
:10168000613009F093C090E08032910508F08EC07F
:10169000FC01E65DFF4F0C94080FD89A0895D99A83
:1016A0000895DA9A0895DB9A0895DC9A0895DD9AF0
:1016B0000895DE9A0895DF9A0895C09A0895C19A10
:1016C0000895C29A0895C39A0895C49A0895C59A30
:1016D0000895C69A0895C79A0895A89A0895A99A50
:1016E0000895AA9A0895AB9A0895AC9A0895AD9A70
:1016F0000895AE9A0895A79A0895909A0895919A98
:101700000895929A0895939A0895949A0895959AAF
:101710000895969A0895979A089590E080329105D9
:1017200008F044C0FC01E65BFF4F0C94080FD8980A
:101730000895D9980895DA980895DB980895DC986B
:101740000895DD980895DE980895DF980895C0986B
:101750000895C1980895C2980895C3980895C498AB
:101760000895C5980895C6980895C7980895A898AB
:101770000895A9980895AA980895AB980895AC98EB
:101780000895AD980895AE980895AF9808959098EB
:10179000089591980895929808959398089594982B
:1017A000089595980895969808959798089581308A
:1017B00041F028F0823039F0833039F008956BBB66
:1017C000089568BB089565BB089562BB0895482FCE
:1017D000883020F499B3892F90E014C088EF840FEB
:1017E000883010F426B30BC080EF840F883010F4DB
:1017F00023B305C088EE840F883058F420B330E05E
:101800004770C90102C0959587954A95E2F78170A6
:10181000089580E00895E199FECF9FBB8EBB6DBB1C
:10182000E29AE19A8FE097E20197F1F700C0000099
:101830000895E199FECF9FBB8EBBE09A8DB30895CA
:101840001F920F920FB60F9211242F933F934F9335
:101850005F936F937F938F939F93AF93BF93EF9318
:10186000FF93E091AF02F091B002309709F0099533
:10187000FF91EF91BF91AF919F918F917F916F9168
:101880005F914F913F912F910F900FBE0F901F903E
:1018900018951F920F920FB60F9211242F933F931A
:1018A0004F935F936F937F938F939F93AF93BF9368
:1018B000EF93FF93E091B502F091B602309709F0F3
:1018C0000995FF91EF91BF91AF919F918F917F917A
:1018D0006F915F914F913F912F910F900FBE0F909D
:1018E0001F9018951F920F920FB60F9211242F93ED
:1018F0003F934F935F936F937F938F939F93AF9398
:10190000BF93EF93FF938091B5029091B602892B1C
:1019100029F0E091B302F091B4020995FF91EF91A3
:10192000BF91AF919F918F917F916F915F914F91F7
:101930003F912F910F900FBE0F901F9018951F92FF
:101940000F920FB60F9211242F933F934F935F93F3
:101950006F937F938F939F93AF93BF93EF93FF9377
:101960008091B5029091B602892B29F0E091B102E5
:10197000F091B2020995FF91EF91BF91AF919F91C4
:101980008F917F916F915F914F913F912F910F9028
:101990000FBE0F901F901895811102C06C9A01C064
:1019A0006C986E9A08958FB9779BFECF8FB108958A
:1019B0001F920F920FB60F9211242F933F934F93C4
:1019C0005F936F937F938F939F93AF93BF93EF93A7
:1019D000FF93E091B702F091B802309709F00995B2
:1019E000FF91EF91BF91AF919F918F917F916F91F7
:1019F0005F914F913F912F910F900FBE0F901F90CD
:101A000018951F920F920FB60F9211242F933F93A8
:101A10004F935F936F937F938F939F93AF93BF93F6
:101A2000EF93FF93E091C102F091C202309709F069
:101A30000995FF91EF91BF91AF919F918F917F9108
:101A40006F915F914F913F912F910F900FBE0F902B
:101A50001F9018951F920F920FB60F9211242F937B
:101A60003F934F935F936F937F938F939F93AF9326
:101A7000BF93EF93FF93E091C302F091C4023097BC
:101A800009F00995FF91EF91BF91AF919F918F91CF
:101A90007F916F915F914F913F912F910F900FBE6A
:101AA0000F901F90189590E088309105A0F5FC01EB
:101AB000E659FF4F8FB50C94080F8E7F8FBD8FB501
:101AC0008D7F8FBD8EB5877F22C08E7F8FBD8FB5F6
:101AD0008D7F08C08E7F0EC08E7F01C081608FBD5C
:101AE0008FB582608FBD8EB588608EBD8EB58061EA
:101AF00011C081608FBD8FB58D7F06C08E7F01C004
:101B000081608FBD8FB582608FBD8EB588608EBDC0
:101B10008EB58F7E8EBD8EB5887F8EBD8EB5682BBF
:101B20006EBD089589B7806189BF089589B78F7E9A
:101B300089BF08959093BE028093BD0208951F92BD
:101B40000F920FB60F9211242F933F934F935F93F1
:101B50006F937F938F939F93AF93BF93EF93FF9375
:101B6000E091BF02F091C002309709F00995FF9112
:101B7000EF91BF91AF919F918F917F916F915F9105
:101B80004F913F912F910F900FBE0F901F9018957E
:101B90001F920F920FB60F9211242F933F934F93E2
:101BA0005F936F937F938F939F93AF93BF93EF93C5
:101BB000FF93E091BD02F091BE02309709F00995C4
:101BC000FF91EF91BF91AF919F918F917F916F9115
:101BD0005F914F913F912F910F900FBE0F901F90EB
:101BE00018951F920F920FB60F9211242F933F93C7
:101BF0004F935F936F937F938F939F93AF93BF9315
:101C0000EF93FF93E091BB02F091BC02309709F093
:101C10000995FF91EF91BF91AF919F918F917F9126
:101C20006F915F914F913F912F910F900FBE0F9049
:101C30001F9018951F920F920FB60F9211242F9399
:101C40003F934F935F936F937F938F939F93AF9344
:101C5000BF93EF93FF93E091B902F091BA023097EE
:101C600009F00995FF91EF91BF91AF919F918F91ED
:101C70007F916F915F914F913F912F910F900FBE88
:101C80000F901F901895CF92DF92EF92FF920F93D3
:101C90001F93CF93DF938C017B0160E070E080E0C5
:101CA00090E00E94DA01E80124968AE0C82ED12C47
:101CB000C701B6010E94B30E7B01682FCE010E94BE
:101CC0000B0C21970C171D0799F7DF91CF911F91EE
:101CD0000F91FF90EF90DF90CF900895AF92BF9259
:101CE000CF92DF92EF92FF920F931F93CF93DF93E8
:101CF000EC0121966C0125E0C20ED11C88EEE82E85
:101D000083E0F82E00E010E09AE0A92EB12CCE017D
:101D10000E94190C282F2E9DC0012F9D900D11247B
:101D2000080F191FC701B5010E94B30E7B01219650
:101D3000CC16DD0661F7C801DF91CF911F910F919D
:101D4000FF90EF90DF90CF90BF90AF900895991BD8
:101D500079E004C0991F961708F0961B881F7A95A2
:101D6000C9F780950895AA1BBB1B51E107C0AA1FA4
:101D7000BB1FA617B70710F0A61BB70B881F991F2C
:101D80005A95A9F780959095BC01CD010895A1E2DF
:101D90001A2EAA1BBB1BFD010DC0AA1FBB1FEE1FE5
:101DA000FF1FA217B307E407F50720F0A21BB30B30
:101DB000E40BF50B661F771F881F991F1A9469F7AC
:101DC00060957095809590959B01AC01BD01CF0108
:101DD0000895052E97FB1EF400940E94000F57FDF6
:101DE00007D00E94C70E07FC03D04EF40C94000FDE
:101DF00050954095309521953F4F4F4F5F4F089537
:101E000090958095709561957F4F8F4F9F4F089566
:101E1000EE0FFF1F0590F491E02D0994F894FFCF89
:101E20008F0100008F0100004E01013738392F3437
:101E300035362A3132332D63303D2B57726F6E6742
:101E400020496E70757400206973204F4E3A2D0042
:101E500031295365742054656D70657261747572B3
:101E600065202032294F4E202033294F464620201E
:101E7000302952455400206973204F46463A2D00C0
:101E800054560031294F4E20202032294F464620FB
:101E90002020302952455400526F6F6D00536573F6
:101EA00073696F6E2054696D656F757421210045EB
:101EB0006E7465722054656D7065726174757265BB
:101EC000003129526F6F6D3120203229526F6F6DB2
:101ED0003220203329526F6F6D33003429526F6FD7
:101EE0006D3420203529545620203629416972202E
:101EF000436F6E646974696F6E003129526F6F6D44
:101F00003120203229526F6F6D3220003329526FF9
:101F10006F6D3320203429526F6F6D340046697223
:101F2000737420557365642000536574204F776E79
:101F300065722050617373776F726400536574200B
:101F400047756573742050617373776F72640053C3
:101F5000656C65637420546865204D6F646520006E
:101F600031294F574E4552204D4F444520202020C7
:101F70002020202032294755455354204D4F4445B9
:101F800000456E74657220546865205269676874F4
:101F9000204D6F646500456E74657220546865203D
:101FA0004F776E65722050617373776F726400595A
:101FB0006F752061726520696E204F776E657220A3
:101FC0004D6F64650057726F6E6720506173737751
:101FD0006F7264005472696573204C6566742020CA
:101FE0002000456E746572205468652047756573DE
:101FF000742050617373776F726400596F7520613C
:10200000726520696E204775657374204D6F646535
:10201000005468652053797374656D20496E2042C1
:102020006C6F636B696E67204D6F646500426C6F07
:10203000636B696E672054696D6520697320323067
:1020400020730000000000020202020000000000F5
:10205000000100000000000000000000000002007D
:04206000000000007C
:00000001FF
