S00D0000536C6176652E737265631C
S11300000C9472000C94BA040C94E3040C94100540
S11300100C948F000C948F000C9491060C943F0662
S11300200C9468060C9416060C9478050C94A1059F
S11300300C944F050C948F000C948F000C948F003B
S11300400C948F000C9491040C948F000C948F00EA
S11300500C948F00D303D503D703D903DB03DD034B
S1130060DF03E103E303E503E703E903EB03ED0344
S1130070EF03F103F303F503F703F903FB03FD03B4
S1130080FF03010403040504070409040B040D041D
S11300900F0411041D041F04210423042504270450
S11300A029042B042D042F043104330435043704AC
S11300B039043B043D043F0441044304450447041C
S11300C049044B044D044F0451045304550457048C
S11300D059045B04D405DC05E105E305E505F005F9
S11300E0F505F70511241FBECFE5D8E0DEBFCDBF6F
S11300F010E0A0E6B0E0EAECFDE002C005900D924D
S1130100AC38B107D9F720E0ACE8B0E001C01D92EB
S1130110A23BB207E1F70E947A010C94E3060C9427
S11301200000CF93C82F60E088E00E94C3036C2FC7
S113013082E00E945D0461E089E00E94C3038FECC9
S113014097E00197F1F700C0000060E089E00E94A9
S1130150C3038FEC97E00197F1F700C00000CF9143
S11301600895CF93C82F61E088E00E94C3036C2FE9
S113017082E00E945D0461E089E00E94C3038FEC89
S113018097E00197F1F700C0000060E089E00E9469
S1130190C3038FEC97E00197F1F700C00000CF9103
S11301A008952FE788E391E0215080409040E1F7E3
S11301B000C0000088E30E9491008EE00E9491003C
S11301C081E00E9491008FEC97E00197F1F700C065
S11301D0000086E00C9491000F931F93CF938C0141
S11301E0C0E0F801EC0FF11D8081882321F00E940A
S11301F0B100CF5FF6CFCF911F910F91089580E0AA
S11302000E9496026AE070E00E94BA06CB0108954B
S1130210809191008F5F8093910008950E9446051C
S11302208093B1008091B100833711F481E050C014
S113023080918C00813051F48093950080939600D6
S11302408091B1008093AF0082E042C0833099F482
S11302509091B1009D3679F090919200913059F0CF
S113026081E0809396008091B1008093B000109259
S1130270950084E02DC09091B100943639F4109229
S11302808C001092AF001092B00008959091B100CC
S11302909D3621F481E0809392000895909192001C
S11302A09923A9F080919300882371F08091B10083
S11302B090E09093900080938F0081E0809397006A
S11302C080939400809398001092920008958F5F19
S11302D080938C00089562E082E00E94CA0588E061
S11302E091E00E9411060E9409068FE493EC9BBDE5
S11302F08ABD0895CF93DF9300D0CDB7DEB71A82BD
S1130300198278940E94B0030E94D10066E081E0D3
S11303100E946D0284E690E00E94EC0081E00E945D
S11303203D058EE091E00E944A050E9448058091B7
S113033095008130E9F48091AF00833089F038F47E
S1130340813061F0823009F071C089E10CC08430E1
S113035049F0853009F06AC08CE105C088E103C02A
S11303608AE101C08BE10E946D040E9444055EC0D5
S113037090919600913009F059C08091B000863672
S113038049F18E3609F052C08091AF00833081F07C
S113039038F4813059F0823009F048C061E03AC045
S11303A0853051F038F0863049F040C061E030C00B
S11303B061E033C061E034C061E035C090939300E4
S11303C08981811103C081E0898330C081E08093F9
S11303D094002CC08091AF008330F1F030F4813070
S11303E0B1F0823019F560E015C08530D9F0B8F06D
S11303F08630E1F460E08DE10E94C3030E940D06A3
S11304001092940010929300109291000FC060E03B
S113041088E10AC089E108C060E08AE105C060E0C3
S11304208BE102C060E08CE10E94C30380919100E3
S1130430409160005091610060916200709163008E
S113044090E0A0E0B0E084179507A607B70728F46A
S113045080919400813009F06ACF10919700113097
S113046009F065CF109294000E946B0110929100E4
S11304700E94FF0090938E0080938D0020918D0048
S113048030918E0080918F00909190008217930795
S113049030F461E08DE10E94C3031A8348CF2091B8
S11304A08D0030918E0080918F00909190002817DC
S11304B0390730F460E08DE10E94C3031A8237CF1C
S11304C08A81813011F461E004C08A8181112FCFC7
S11304D060E08DE10E94C3032ACF813041F028F00F
S11304E0823039F43E9A3F9A04C03E9801C03E9A45
S11304F03F9886B1887F86B986B16770682B66B9E4
S11305003D98379A089597B1907E97B997B1892B02
S113051087B9369A2FEF80E792E0215080409040CF
S1130520E1F700C0000084B195B108950E948302F0
S11305309C01A8E8B3E10E94D406DC01CB012AE0C7
S1130540B695A795979587952A95D1F70895613023
S113055009F457C020F0623009F4ABC00895883024
S113056080F44AB321E030E0B90102C0660F771F7E
S11305708A95E2F7CB01942F982B9ABB9BB3809575
S113058051C098EF980F983088F447B3877021E0F2
S113059030E0B90102C0660F771F8A95E2F7CB01FC
S11305A0942F982B97BB98B3809553C090EF980FD6
S11305B0983088F444B3877021E030E0B90102C078
S11305C0660F771F8A95E2F7CB01942F982B94BB83
S11305D095B3809555C098EE980F983008F0BFC039
S11305E041B3877021E030E0B90102C0660F771F84
S11305F08A95E2F7CB01942F982B91BB92B3809507
S113060056C0883090F44AB321E030E0B90102C00A
S1130610660F771F8A95E2F7CB018095942F982374
S11306209ABB9BB389238BBB089598EF980F98309E
S113063098F447B3877021E030E0B90102C0660F37
S1130640771F8A95E2F7CB018095942F982397BB67
S113065098B3892388BB089590EF980F983090F44D
S113066044B3877021E030E0B90102C0660F771F00
S11306708A95E2F7CB018095942F982394BB95B388
S1130680892355C098EE980F983008F068C041B39C
S1130690877021E030E0B90102C0660F771F8A95A8
S11306A0E2F7CB018095942F982391BB92B38923D1
S11306B055C0883088F44AB321E030E0B90102C063
S11306C0660F771F8A95E2F7CB01962F90959423B6
S11306D09ABB9BB3892BA7CF98EF980F983090F4CF
S11306E047B3877021E030E0B90102C0660F771F7D
S11306F08A95E2F7CB01962F9095942397BB98B3F4
S1130700892BA8CF90EF980F983098F444B3877052
S113071021E030E0B90102C0660F771F8A95E2F745
S1130720CB01962F9095942394BB95B3892B85BBCD
S1130730089598EE980F983090F441B3877021E0B3
S113074030E0B90102C0660F771F8A95E2F7CB014A
S1130750962F9095942391BB92B3892B82BB0895D5
S11307600F931F93CF930CE610E0C0E0F801619162
S11307708F018C2F0E94A702CF5FC032B9F7CF91AF
S11307801F910F910895662309F44DC0613009F05B
S113079093C090E08032910508F08EC0FC01E65DC4
S11307A0FF4F0C94CE06D89A0895D99A0895DA9AF0
S11307B00895DB9A0895DC9A0895DD9A0895DE9AE7
S11307C00895DF9A0895C09A0895C19A0895C29A27
S11307D00895C39A0895C49A0895C59A0895C69A27
S11307E00895C79A0895A89A0895A99A0895AA9A67
S11307F00895AB9A0895AC9A0895AD9A0895AE9A67
S11308000895A79A0895909A0895919A0895929AAE
S11308100895939A0895949A0895959A0895969AA6
S11308200895979A089590E08032910508F044C0A5
S1130830FC01E65BFF4F0C94CE06D8980895D99836
S11308400895DA980895DB980895DC980895DD9862
S11308500895DE980895DF980895C0980895C19882
S11308600895C2980895C3980895C4980895C598A2
S11308700895C6980895C7980895A8980895A998C2
S11308800895AA980895AB980895AC980895AD98E2
S11308900895AE980895AF98089590980895919802
S11308A00895929808959398089594980895959822
S11308B008959698089597980895813041F028F006
S11308C0823039F0833039F008956BBB089568BBEA
S11308D0089565BB089562BB0895482F883020F4BD
S11308E099B3892F90E014C088EF840F883010F4F6
S11308F026B30BC080EF840F883010F423B305C0F7
S113090088EE840F883058F420B330E04770C90172
S113091002C0959587954A95E2F78170089580E025
S113092008951F920F920FB60F9211242F933F93A5
S11309304F935F936F937F938F939F93AF93BF93E3
S1130940EF93FF93E0919900F0919A00309709F0AA
S11309500995FF91EF91BF91AF919F918F917F91F5
S11309606F915F914F913F912F910F900FBE0F9018
S11309701F9018951F920F920FB60F9211242F9368
S11309803F934F935F936F937F938F939F93AF9313
S1130990BF93EF93FF93E0919F00F091A0003097F5
S11309A009F00995FF91EF91BF91AF919F918F91BC
S11309B07F916F915F914F913F912F910F900FBE57
S11309C00F901F9018951F920F920FB60F9211243B
S11309D02F933F934F935F936F937F938F939F9343
S11309E0AF93BF93EF93FF9380919F009091A000EA
S11309F0892B29F0E0919D00F0919E000995FF91CB
S1130A00EF91BF91AF919F918F917F916F915F9182
S1130A104F913F912F910F900FBE0F901F901895FB
S1130A201F920F920FB60F9211242F933F934F935F
S1130A305F936F937F938F939F93AF93BF93EF9342
S1130A40FF9380919F009091A000892B29F0E09161
S1130A509B00F0919C000995FF91EF91BF91AF919C
S1130A609F918F917F916F915F914F913F912F91C2
S1130A700F900FBE0F901F901895811102C06C9AB1
S1130A8001C06C986E9A08958FB908958FB1089536
S1130A906F9A08959093A2008093A10008951F92E5
S1130AA00F920FB60F9211242F933F934F935F939E
S1130AB06F937F938F939F93AF93BF93EF93FF9322
S1130AC0E091A100F091A200309709F00995FF91FF
S1130AD0EF91BF91AF919F918F917F916F915F91B2
S1130AE04F913F912F910F900FBE0F901F9018952B
S1130AF01F920F920FB60F9211242F933F934F938F
S1130B005F936F937F938F939F93AF93BF93EF9371
S1130B10FF93E091AB00F091AC00309709F0099598
S1130B20FF91EF91BF91AF919F918F917F916F91C1
S1130B305F914F913F912F910F900FBE0F901F9097
S1130B4018951F920F920FB60F9211242F933F9373
S1130B504F935F936F937F938F939F93AF93BF93C1
S1130B60EF93FF93E091AD00F091AE00309709F060
S1130B700995FF91EF91BF91AF919F918F917F91D3
S1130B806F915F914F913F912F910F900FBE0F90F6
S1130B901F90189590E088309105A0F5FC01E65966
S1130BA0FF4F8FB50C94CE068E7F8FBD8FB58D7F92
S1130BB08FBD8EB5877F22C08E7F8FBD8FB58D7F11
S1130BC008C08E7F0EC08E7F01C081608FBD8FB53F
S1130BD082608FBD8EB588608EBD8EB5806111C078
S1130BE081608FBD8FB58D7F06C08E7F01C081600F
S1130BF08FBD8FB582608FBD8EB588608EBD8EB57A
S1130C008F7E8EBD8EB5887F8EBD8EB5682B6EBDF2
S1130C10089589B7806189BF089589B78F7E89BF98
S1130C2008959093A8008093A70008951F920F92AF
S1130C300FB60F9211242F933F934F935F936F93AB
S1130C407F938F939F93AF93BF93EF93FF93E09121
S1130C50A900F091AA00309709F00995FF91EF914E
S1130C60BF91AF919F918F917F916F915F914F91C0
S1130C703F912F910F900FBE0F901F9018951F92C8
S1130C800F920FB60F9211242F933F934F935F93BC
S1130C906F937F938F939F93AF93BF93EF93FF9340
S1130CA0E091A700F091A800309709F00995FF9111
S1130CB0EF91BF91AF919F918F917F916F915F91D0
S1130CC04F913F912F910F900FBE0F901F90189549
S1130CD01F920F920FB60F9211242F933F934F93AD
S1130CE05F936F937F938F939F93AF93BF93EF9390
S1130CF0FF93E091A500F091A600309709F00995C3
S1130D00FF91EF91BF91AF919F918F917F916F91DF
S1130D105F914F913F912F910F900FBE0F901F90B5
S1130D2018951F920F920FB60F9211242F933F9391
S1130D304F935F936F937F938F939F93AF93BF93DF
S1130D40EF93FF93E091A300F091A400309709F092
S1130D500995FF91EF91BF91AF919F918F917F91F1
S1130D606F915F914F913F912F910F900FBE0F9014
S1130D701F901895AA1BBB1B51E107C0AA1FBB1FDC
S1130D80A617B70710F0A61BB70B881F991F5A9513
S1130D90A9F780959095BC01CD010895EE0FFF1F32
S1130DA00590F491E02D0994A29FB001B39FC00176
S1130DB0A39F700D811D1124911DB29F700D811D83
S10D0DC01124911D0895F894FFCF4B
S1130DCA04000000536C61766520200001010000D4
S1130DDA02020202000000000101000100000000FA
S10F0DEA000000000000000000000000F9
S9030000FC
